:020000040800F2
:10000000000002204D550008BD610008C1610008D4
:10001000C5610008C9610008CD610008000000004A
:10002000000000000000000000000000D161000896
:10003000D561000800000000D9610008DD610008FA
:100040009D5500089D5500089D5500089D550008C8
:100050009D5500089D550008E9610008E161000810
:100060009D5500089D5500089D5500089D550008A8
:100070009D5500089D5500089D5500089D55000898
:100080009D5500089D5500089D5500089D55000888
:100090009D5500089D5500089D5500089D55000878
:1000A0009D5500089D5500089D5500089D55000868
:1000B000F16100089D5500089D5500089D550008F8
:1000C0009D5500089D5500089D5500089D55000848
:1000D0009D5500089D5500089D5500089D55000838
:1000E0009D5500089D5500089D5500089D55000828
:1000F0009D5500089D5500089D55000875CE0008C7
:100100009D5500089D5500089D5500089D55000807
:100110009D5500089D5500089D5500089D550008F7
:100120009D5500089D5500089D5500089D550008E7
:100130009D5500089D5500089D5500089D550008D7
:100140009D5500089D5500089D550008F561000863
:100150009D5500089D5500089D5500089D550008B7
:100160009D5500089D5500089D5500089D550008A7
:100170009D5500089D5500089D5500089D55000897
:080180009D5500089D55000883
:10018800844641EA000313F003036DD1403A41D39A
:1001980051F8043B40F8043B51F8043B40F8043B59
:1001A80051F8043B40F8043B51F8043B40F8043B49
:1001B80051F8043B40F8043B51F8043B40F8043B39
:1001C80051F8043B40F8043B51F8043B40F8043B29
:1001D80051F8043B40F8043B51F8043B40F8043B19
:1001E80051F8043B40F8043B51F8043B40F8043B09
:1001F80051F8043B40F8043B51F8043B40F8043BF9
:1002080051F8043B40F8043B51F8043B40F8043BE8
:10021800403ABDD2303211D351F8043B40F8043B88
:1002280051F8043B40F8043B51F8043B40F8043BC8
:1002380051F8043B40F8043B103AEDD20C3205D398
:1002480051F8043B40F8043B043AF9D2043208D090
:10025800D2071CBF11F8013B00F8013B01D30B8802
:1002680003806046704700BF082A13D38B078DD0E0
:1002780010F003038AD0C3F10403D21ADB071CBFB2
:1002880011F8013B00F8013B80D331F8023B20F81C
:10029800023B7BE7043AD9D3013A11F8013B00F855
:1002A800013BF9D20B7803704B7843708B788370DD
:1002B8006046704740EA010C1CF0070F23D1BDF1DE
:1002C800100DCDE90245CDE900676FF000064FF04B
:1002D800000700BFF0E80223F1E80245A24282FAD3
:1002E80046FCA7FA86FC08BFBCF1000F40F0D78097
:1002F800AB4283FA46FCA7FA86FC08BFBCF1000FA4
:1003080040F0CA80E6E710F0030C21D020F003008B
:1003180050F8042B5FEACC7C08D00FD211F801CB3F
:100328005FFA92F3B3EB0C0C10D17BB111F801CB4F
:100338005FFAA2F3B3EB0C0C08D13BB111F801CB77
:100348005FFAB2F3B3EB0C0C00D10BB960467047FF
:10035800BDF1100DCDE90245CDE900676FF000064B
:100368004FF0000711F0030C2DD110F0040F0DD041
:1003780050F8042B51F8044BA24282FA46FCA7FA23
:1003880086FC08BFBCF1000F40F0898011F0040F13
:100398009FD051F8045B00BFF0E80223AA4282FA1A
:1003A80046FCA7FA86FC08BFBCF1000F71D1F1E842
:1003B8000245A34283FA46FCA7FA86FC08BFBCF1B3
:1003C800000F63D1E8E721F00301BCF1020F1ED052
:1003D8003BDA51F8045B00BF50F8043B4FEA15259F
:1003E80083FA46FCA7FA86FCB7EB0C2F03EA162221
:1003F80008BFAA424DD151F8045BBCF1000F82EA54
:1004080003034FEA056208BF93423CD1E4E751F881
:10041800045B00BF50F8043B4FEA154583FA46FCDD
:10042800A7FA86FCB7EB0C4F03EA164208BFAA42AC
:100438002FD151F8045BBCF1000F82EA03034FEAA5
:10044800054208BF93421ED1E4E751F8045B00BFA0
:1004580050F8043B4FEA156583FA46FCA7FA86FC78
:10046800B7EB0C6F03EA166208BFAA4211D151F824
:10047800045BBCF1000F82EA03034FEA052208BFC0
:10048800934200D1E4E719BA12BA0AE019BA22BABB
:1004980007E011BA2ABA04E019BA2ABA01E011BA77
:1004A80022BA9CFA8CF0DDE90067DDE902451DF10E
:1004B800100D38B1B0FA80F0C0F1180021FA00F13F
:1004C80022FA00F20120914298BF8041704700BF94
:1004D80081F0004102E000BF83F0004330B54FEAED
:1004E80041044FEA430594EA050F08BF90EA020F5A
:1004F8001FBF54EA000C55EA020C7FEA645C7FEAED
:10050800655C00F0E2804FEA5454D4EB5555B8BF0F
:100518006D420CDD2C4480EA020281EA030382EA80
:10052800000083EA010180EA020281EA0303362D12
:1005380088BF30BD11F0004F4FEA01314FF4801CE5
:100548004CEA113102D0404261EB410113F0004FF7
:100558004FEA03334CEA133302D0524263EB4303AE
:1005680094EA050F00F0A780A4F10104D5F1200E4C
:100578000DDB02FA0EFC22FA05F2801841F10001A7
:1005880003FA0EF2801843FA05F359410EE0A5F17B
:1005980020050EF1200E012A03FA0EFC28BF4CF0AC
:1005A800020C43FA05F3C01851EBE37101F0004562
:1005B80007D54FF0000EDCF1000C7EEB00006EEB6F
:1005C8000101B1F5801F1BD3B1F5001F0CD34908F9
:1005D8005FEA30004FEA3C0C04F101044FEA445250
:1005E80012F5800F80F09A80BCF1004F08BF5FEAD7
:1005F800500C50F1000041EB045141EA050130BDB7
:100608005FEA4C0C404141EB010111F4801FA4F159
:100618000104E9D191F0000F04BF01460020B1FAAE
:1006280081F308BF2033A3F10B03B3F120020CDAE6
:100638000C3208DD02F1140CC2F10C0201FA0CF0C4
:1006480021FA02F10CE002F11402D8BFC2F1200C29
:1006580001FA02F120FA0CFCDCBF41EA0C019040DF
:10066800E41AA2BF01EB0451294330BD6FEA040428
:100678001F3C1CDA0C340EDC04F11404C4F1200213
:1006880020FA04F001FA02F340EA030021FA04F325
:1006980045EA030130BDC4F10C04C4F1200220FA7C
:1006A80002F001FA04F340EA0300294630BD21FABA
:1006B80004F0294630BD94F0000F83F4801306BF80
:1006C80081F480110134013D4EE77FEA645C18BF74
:1006D8007FEA655C29D094EA050F08BF90EA020F0B
:1006E80005D054EA000C04BF1946104630BD91EA03
:1006F800030F1EBF0021002030BD5FEA545C05D106
:100708004000494128BF41F0004130BD14F5800444
:100718003CBF01F5801130BD01F0004545F0FE41B8
:1007280041F470014FF0000030BD7FEA645C1ABFED
:10073800194610467FEA655C1CBF0B46024650EA24
:10074800013406BF52EA033591EA030F41F4002150
:1007580030BD00BF90F0000F04BF0021704730B5D6
:100768004FF4806404F132044FF000054FF00001AB
:1007780050E700BF90F0000F04BF0021704730B56C
:100788004FF4806404F1320410F0004548BF404241
:100798004FF000013EE700BF42004FEAE2014FEA96
:1007A80031014FEA02701FBF12F07F4393F07F4F71
:1007B80081F06051704792F0000F14BF93F07F4FA3
:1007C800704730B54FF4607401F0004521F00041E6
:1007D80020E700BF50EA010208BF704730B54FF06C
:1007E80000050AE050EA010208BF704730B511F071
:1007F800004502D5404261EB41014FF4806404F1A9
:1008080032045FEA915C3FF4DCAE4FF003025FEA2A
:10081800DC0C18BF03325FEADC0C18BF033202EBB2
:10082800DC02C2F1200300FA03FC20FA02F001FA0C
:1008380003FE40EA0E0021FA02F11444C1E600BFAB
:1008480070B54FF0FF0C4CF4E06C1CEA11541DBF5E
:100858001CEA135594EA0C0F95EA0C0F00F0DEF829
:100868002C4481EA030621EA4C5123EA4C5350EA0E
:10087800013518BF52EA033541F4801143F480135F
:1008880038D0A0FB02CE4FF00005E1FB02E506F0F0
:100898000042E0FB03E54FF00006E1FB03569CF045
:1008A800000F18BF4EF0010EA4F1FF04B6F5007F4B
:1008B80064F5407404D25FEA4E0E6D4146EB0606BD
:1008C80042EAC62141EA55514FEAC52040EA5E5046
:1008D8004FEACE2EB4F1FD0C88BFBCF5E06F1ED8F0
:1008E800BEF1004F08BF5FEA500E50F1000041EB27
:1008F800045170BD06F0004646EA010140EA0200D4
:1009080081EA0301B4EB5C04C2BFD4EB0C0541EAF5
:10091800045170BD41F480114FF0000E013C00F30A
:10092800AB8014F1360FDEBF002001F0004170BD2E
:10093800C4F10004203C35DA0C341BDC04F1140447
:10094800C4F1200500FA05F320FA04F001FA05F2D3
:1009580040EA020001F0004221F0004110EBD370A0
:1009680021FA04F642EB06015EEA430E08BF20EACC
:10097800D37070BDC4F10C04C4F1200500FA04F36F
:1009880020FA05F001FA04F240EA020001F0004101
:1009980010EBD37041F100015EEA430E08BF20EA74
:1009A800D37070BDC4F1200500FA05F24EEA020EBC
:1009B80020FA04F301FA05F243EA020321FA04F0EB
:1009C80001F0004121FA04F220EA020000EBD370A2
:1009D8005EEA430E08BF20EAD37070BD94F0000FA2
:1009E8000FD101F00046400041EB010111F4801FD6
:1009F80008BF013CF7D041EA060195F0000F18BF87
:100A0800704703F00046520043EB030313F4801FC2
:100A180008BF013DF7D043EA0603704794EA0C0F7C
:100A28000CEA135518BF95EA0C0F0CD050EA410692
:100A380018BF52EA4306D1D181EA030101F000410F
:100A48004FF0000070BD50EA410606BF1046194637
:100A580052EA430619D094EA0C0F02D150EA013643
:100A680013D195EA0C0F05D152EA03361CBF104684
:100A780019460AD181EA030101F0004141F0FE4123
:100A880041F470014FF0000070BD41F0FE4141F4A7
:100A9800780170BD70B54FF0FF0C4CF4E06C1CEAA7
:100AA80011541DBF1CEA135594EA0C0F95EA0C0F5C
:100AB80000F0A7F8A4EB050481EA030E52EA033517
:100AC8004FEA013100F088804FEA03334FF0805538
:100AD80045EA131343EA12634FEA022245EA111565
:100AE80045EA10654FEA00260EF000419D4208BF16
:100AF800964244F1FD0404F5407402D25B084FEAC3
:100B08003202B61A65EB03055B084FEA32024FF46E
:100B180080104FF4002CB6EB020E75EB030E22BFCB
:100B2800B61A754640EA0C005B084FEA3202B6EB8B
:100B3800020E75EB030E22BFB61A754640EA5C003A
:100B48005B084FEA3202B6EB020E75EB030E22BFCA
:100B5800B61A754640EA9C005B084FEA3202B6EBCB
:100B6800020E75EB030E22BFB61A754640EADC008A
:100B780055EA060E18D04FEA051545EA16754FEAEC
:100B880006164FEAC30343EA52734FEAC2025FEA0A
:100B98001C1CC0D111F4801F0BD141EA00014FF099
:100BA80000004FF0004CB6E711F4801F04BF01436A
:100BB8000020B4F1FD0C88BFBCF5E06F3FF6AFAE86
:100BC800B5EB030C04BFB6EB020C5FEA500C50F116
:100BD800000041EB045170BD0EF0004E4EEA113199
:100BE80014EB5C04C2BFD4EB0C0541EA045170BDA0
:100BF80041F480114FF0000E013C90E645EA060EE4
:100C08008DE60CEA135594EA0C0F08BF95EA0C0F11
:100C18003FF43BAF94EA0C0F0AD150EA01347FF459
:100C280034AF95EA0C0F7FF425AF104619462CE730
:100C380095EA0C0F06D152EA03353FF4FDAE104693
:100C4800194622E750EA410618BF52EA43067FF4E4
:100C5800C5AE50EA41047FF40DAF52EA43057FF474
:100C6800EBAE12E74FF0FF3C06E000BF4FF0010C7F
:100C780002E000BF4FF0010C4DF804CD4FEA410CE3
:100C88007FEA6C5C4FEA430C18BF7FEA6C5C1BD0B0
:100C980001B050EA410C0CBF52EA430C91EA030F31
:100CA80002BF90EA020F0020704710F1000F91EA8E
:100CB800030F58BF994208BF90422CBFD8176FEA5C
:100CC800E37040F0010070474FEA410C7FEA6C5C2A
:100CD80002D150EA013C07D14FEA430C7FEA6C5C31
:100CE800D6D152EA033CD3D05DF8040B704700BF5D
:100CF8008446104662468C461946634600E000BFAB
:100D080001B5FFF7B7FF002848BF10F1000F01BD7C
:100D18004DF808EDFFF7F4FF0CBF012000205DF847
:100D280008FB00BF4DF808EDFFF7EAFF34BF0120CC
:100D380000205DF808FB00BF4DF808EDFFF7E0FF65
:100D480094BF012000205DF808FB00BF4DF808EDB6
:100D5800FFF7CEFF94BF012000205DF808FB00BF1D
:100D68004DF808EDFFF7C4FF34BF012000205DF8FF
:100D780008FB00BF4FEA410212F5001215D211D547
:100D88006FF47873B3EB625212D94FEAC12343F080
:100D9800004343EA505311F0004F23FA02F018BF02
:100DA800404270474FF00000704750EA013005D1CB
:100DB80011F0004008BF6FF0004070474FF000008E
:100DC800704700BF4BB942B9002908BF002802D0BC
:100DD8004FF0FF31084600F03BB882B0EC462DE9F1
:100DE800005000F01DF8DDF804E002B00CBC7047BC
:100DF8002DE97043069E14461D468046894600F03C
:100E080029F804FB01F300FB0533A4FB00451D444E
:100E1800B8EB040469EB0505C6E90045BDE8708335
:100E28002DE97043069E1446804689461D4600F00B
:100E38005DF900FB05F504FB0153A0FB04451D44C7
:100E4800B8EB040469EB0505C6E90045BDE8708305
:100E5800704700BF00292DE9F00FC0F29F800024E1
:100E6800002BC0F29680154606460F46002B3ED151
:100E78008A4257D9B2FA82F34BB1C3F1200201FA80
:100E880003F720FA02F29D40174300FA03F6290CF3
:100E9800B7FBF1F2330C01FB127CA8B243EA0C4712
:100EA80000FB02F3BB4209D97F1902F1FF3C80F035
:100EB8000181BB4240F2FE80023A2F44FF1AB7FB81
:100EC800F1F3B6B201FB137146EA014100FB03F0EE
:100ED800884208D9491903F1FF3780F0ED8088422C
:100EE80040F2EA80023B43EA0242002303E08B42DD
:100EF8000AD900231A461046194614B1404261EB3C
:100F08004101BDE8F00F7047B3FA83F8B8F1000F5C
:100F180040F084808B4202D3824200F2DE800023BC
:100F28000122E8E712B90123B3FBF2F5B5FA85F21D
:100F3800002A39D17F1B280C1FFA85FC0123B7FB37
:100F4800F0F1320C00FB117742EA07470CFB01F283
:100F5800BA4207D97F1901F1FF3802D2BA4200F22A
:100F6800C1804146BF1AB7FBF0F2B6B200FB12705F
:100F780046EA00400CFB02FC844507D9401902F1FF
:100F8800FF3702D2844500F2AB803A4642EA01427A
:100F9800B1E7E443524263EB430364E7404261EB49
:100FA80041014FF0FF345BE79540C2F1200327FA77
:100FB80003F1280C26FA03F39740B1FBF0F81F431E
:100FC8003B0C00FB18111FFA85FC43EA01410CFB9E
:100FD80008F38B4206FA02F608D9491908F1FF32DC
:100FE80079D28B4277D9A8F102082944C91AB1FBF2
:100FF800F0F3BFB200FB131147EA01470CFB03F201
:10100800BA4207D97F1903F1FF3160D2BA425ED9DB
:10101800023B2F44BF1A43EA084390E7C8F1200275
:1010280003FA08FC25FA02F343EA0C0C4FEA1C49C0
:1010380021FA02F301FA08F720FA02F2B3FBF9F1F8
:10104800174309FB11333A0C1FFA8CFB42EA03439E
:101058000BFB01FA9A4505FA08F008D913EB0C03C3
:1010680001F1FF3235D29A4533D902396344CAEBCC
:101078000303B3FBF9F209FB1233BFB247EA034794
:101088000BFB02F9B94508D917EB0C0702F1FF333E
:101098001BD2B94519D9023A674442EA0145A5FB72
:1010A8000001C9EB07078F424FF000030AD305D0B0
:1010B8002A4620E7624601E73B4614E706FA08F6A7
:1010C8008642F5D26A1E002315E71A46E5E70B4665
:1010D800A0E71146CBE7904688E7434642460AE731
:1010E800023A53E702392F443CE700BF2DE9F00FDD
:1010F800144605460E46002B43D18A4253D9B2FA0C
:1011080082F757B1C7F1200620FA06F601FA07F36D
:1011180002FA07F41E4300FA07F5210CB6FBF1F2B8
:101128002B0C01FB1267A0B243EA074600FB02F34F
:10113800B34209D9361902F1FF3780F0F680B3427D
:1011480040F2F380023A2644F61AB6FBF1F3ADB248
:1011580001FB136145EA014100FB03F0884208D90D
:10116800091903F1FF3680F0E280884240F2DF80FF
:10117800023B43EA0242002310461946BDE8F00F3D
:1011880070478B424AD8B3FA83F6002E4DD18B4272
:1011980002D3824200F2D68000230122104619466B
:1011A800BDE8F00F704712B90124B4FBF2F4B4FAA9
:1011B80084F2002A7CD1091B260CA7B20123B1FBBB
:1011C800F6F02A0C06FB101142EA014107FB00F277
:1011D8008A4207D9091900F1FF3C02D28A4200F27B
:1011E800C3806046891AB1FBF6F2ADB206FB121154
:1011F80045EA014507FB02F7AF4208D92C1902F16D
:10120800FF3180F09680A74240F29380023A42EA8A
:10121800004210461946BDE8F00F704700231A46F1
:1012280010461946BDE8F00F7047C6F1200522FAAE
:1012380005F4B3401C434FEA144821FA05F301FAB8
:1012480006F720FA05F5B3FBF8FC2F4308FB1C331F
:101258003D0C1FFA84FA45EA03430AFB0CF9994549
:1012680002FA06FB04D91B190CF1FF326DD3944620
:10127800C9EB0303B3FBF8F508FB1533BFB247EA24
:1012880003470AFB05F8B84504D93F1905F1FF33B0
:1012980061D31D4645EA0C4CACFB0B23C8EB070792
:1012A8009F424FF0000549D345D062462B4663E77D
:1012B8009440C2F1200321FA03FC260C20FA03F320
:1012C80001FA02F5BCFBF6F843EA05010B0C06FB34
:1012D80018CCA7B243EA0C4C07FB08F3634500FAA5
:1012E80002F509D91CEB040C08F1FF323AD2634528
:1012F80038D9A8F10208A444C3EB0C0CBCFBF6F3E4
:1013080089B206FB13CC41EA0C4107FB03F28A427F
:1013180007D9091903F1FF3022D28A4220D9023BAA
:101328002144891A43EA084349E73A460CE7334619
:101338001FE70A466BE7B0409042B6D20CF1FF3285
:10134800002319E73346324616E799458FD9ACF1A1
:10135800020C23448CE7B8459BD9023D274499E702
:101368000346DEE79046C7E7023821443AE700BF64
:1013780030B4C5786DB900EB820003339B10D0F808
:10138800D04006D02A46013251F8040B206093421F
:10139800F9D1002030BC7047033270B49510D0F8F2
:1013A800D06009D00A4600230133346842F8044B60
:1013B8009D42F9D101EB8501084670BC704700BF1A
:1013C800F0B4012440220023A14284708280C370BB
:1013D80000F06781002900F051814178C3604FF423
:1013E800006202610278002900F06F814FF46065A5
:1013F8004FF488664FF4806403F5106C03F530678A
:101408000129C0F818C047657ED903F5126C03F5A9
:1014180032670229C0F81CC0876575D903F5146CBA
:1014280003F534670329C0F820C0C7656CD903F5F4
:10143800166C03F536670429C0F824C0076663D91B
:1014480003F5186C03F538670529C0F828C0476606
:101458005AD903F51A6C03F53A670629C0F82CC067
:10146800876651D903F51C6C03F53C670729C0F85A
:1014780030C0C76648D903F51E6C03F53E670829D6
:10148800C0F834C007673FD903F5206C03F54067FF
:101498000929C0F838C0476736D903F5226C03F527
:1014A80042670A29C0F83CC087672DD903F5246C28
:1014B80003F544670B29C0F840C0C76724D903F572
:1014C800266C03F546670C29C0F844C0C0F8807044
:1014D8001AD903F5286C03F548670D29C0F848C0E8
:1014E800C0F8847010D903F52A6C03F54A670E29F1
:1014F800C0F84CC0C0F8887006D903F52C6703F50E
:101508004C610765C0F88C104461C0F8CC60002AB3
:1015180000F0AF8003F5A061012AC0F8901040F2F6
:10152800DC8003F5A461022AC0F894104BD903F5B6
:10153800A861032AC0F8981045D903F5AC61042ABC
:10154800C0F89C103FD903F5B061052AC0F8A01077
:1015580039D903F5B461062AC0F8A41033D903F5C4
:10156800B861072AC0F8A8102DD903F5BC61082A6C
:10157800C0F8AC1027D903F5C061092AC0F8B0102B
:1015880021D903F5C4610A2AC0F8B4101BD903F5A0
:10159800C8610B2AC0F8B81015D903F5CC610C2A1C
:1015A800C0F8BC100FD903F5D0610D2AC0F8C010DF
:1015B80009D903F5D4610E2AC0F8C41003D903F57C
:1015C800D861C0F8C81003F5805403F50051022A09
:1015D800C0F8D040C0F8D4104BD903F54051032AC5
:1015E800C0F8D81045D903F58041042AC0F8DC10AA
:1015F8003FD903F5A041052AC0F8E01039D903F511
:10160800C041062AC0F8E41033D903F5E041072A9F
:10161800C0F8E8102DD903F50041082AC0F8EC10ED
:1016280027D903F51041092AC0F8F01021D903F58C
:1016380020410A2AC0F8F4101BD903F530410B2ABF
:10164800C0F8F81015D903F540410C2AC0F8FC1071
:101658000FD903F550410D2AC0F8001109D903F537
:1016680060410E2AC0F8041103D903F57043C0F88D
:101678000831C0F80C510020F0BC70474FF4A0644A
:10168800184FC1720C220621C480174D174E184CF2
:10169800DFF86CC002703B464170C760C0F810C0EC
:1016A800AAE604234FF4A075022408224FF0A047AD
:1016B800C17243701946C580047202703B460D4DD5
:1016C8000D4E0E4CDFF83CC0E7E70B464FF4606563
:1016D8004FF488664FF4806416E703F58053C0F82A
:1016E800D030C6E700000440000E04404004044027
:1016F80000040440000E0050400400500004005054
:10170800000804400008005070B5037AC168002240
:10171800012B82B00546164655D0CB685D4C43F088
:101728004003CB600320019205F088FEEB681A693C
:10173800019206E005F082FEEB68013C1A6901920D
:1017480019D0019A002A4FF00300F3DA0199514A9F
:1017580041F001010191019919611969019103E0B1
:1017680019690191013A02D00199C907F8D40320F7
:1017780005F064FEEB682A7A697A032A14BF4FF4ED
:1017880034124FF43C1209B142F480129A631420C7
:1017980005F094FEEB68297ADA68032908BF42F459
:1017A8008032DA602A7A032A5DD0EB78012B07D1E0
:1017B800EB689E68052262F3440646F020069E60A8
:1017C800002002B070BD8A6B437A66F310420BB1F9
:1017D80042F480128A63CB682E4C23F4800323F0F2
:1017E800500343F010036FF3C3036FF3C7136FF392
:1017F80051436FF3D343CB6003200023009305F0DC
:101808001DFEEB681A69009206E005F017FEEB680A
:10181800013C1A69009218D0009A002A4FF0030080
:10182800F3DA00991B4A41F001010091009919610E
:101838001969009103E019690091013A02D00099F1
:10184800C807F8D4032005F0F9FDEB78012BB7D1D0
:10185800052363F34406EB6846F020069E60EB78A8
:10186800012BA5D0ACE71C6B012262F39B646FF3DC
:10187800D7542D2244F0805462F316441C63C820C8
:1018880005F01CFEEB6844F400041C63C82005F056
:1018980015FE8AE7400D0300C3689A6842F001020A
:1018A8009A600020704700BFC3689A6822F001025E
:1018B8009A600020704700BFC26808B5D368012944
:1018C8006FF35D736FF39E7308D009B943F08043DB
:1018D800D360322005F0F2FD002008BD43F000532C
:1018E800F6E700BFC368586900F00100704700BF01
:1018F800C3685A6998691040704700BF30B50446FC
:1019080083B005F041FDD4F80C11636900220A6028
:101918001968012060F301011960196862F38201F6
:101928001960E37A012B104600F0D280E1680023A9
:101938000093009A6E4B42F020020092009A102009
:1019480060F38A120092009A0A610A69009203E021
:101958000A690092013B02D0009A9506F8D4032048
:1019680005F06CFD00230193019AE168604B42F099
:1019780010020192019A0A610A69019203E00A6958
:101988000192013B02D0019AD006F8D4032005F059
:1019980055FD2378002B69D0D4F890104FF0FF3212
:1019A80000238A60CB60217801295FD9D4F894108C
:1019B8008A60CB602178022958D9D4F898108A60B7
:1019C800CB602178032951D9D4F89C108A60CB6068
:1019D800217804294AD9D4F8A0108A60CB602178EC
:1019E800052943D9D4F8A4108A60CB602178062948
:1019F8003CD9D4F8A8108A60CB602178072935D95A
:101A0800D4F8AC108A60CB60217808292ED9D4F894
:101A1800B0108A60CB602378092B27D9D4F8B4108A
:101A280000238A60CB6021780A291FD9D4F8B8101E
:101A38008A60CB6021780B2918D9D4F8BC108A6049
:101A4800CB6021780C2911D9D4F8C0108A60CB60FA
:101A580021780D290AD9D4F8C4108A60CB6021787E
:101A68000E2903D9D4F8C8108A60CB60012120461A
:101A780005F080FCD4F8CC2013686FF382036FF371
:101A880041036FF3C3036FF34513D90402D443F43E
:101A980080531360C82005F011FDE26815484FF027
:101AA800FF31002393615161516051619061E37886
:101AB8009169002B14BF0023102343F00C5343F407
:101AC800001343F008030B430020936103B030BDBB
:101AD8008023E025E16863F30F0265F30F00C0F28D
:101AE8006002C0F260004B628A62C1F800011EE722
:101AF800400D03000008008043691A6861F3010281
:101B08001A60704743695869704700BF38B5054681
:101B18000A20D5F8CC2013686FF382036FF34103D2
:101B28006FF3C3036FF3451343F48074146005F037
:101B3800C5FCD5F8CC306FF308241C60142005F0E0
:101B4800BDFC012038BD00BFF0B400EB81024FF0AE
:101B5800FF33D2F890404D01A3604219C37892F840
:101B6800B162012B14BF002204220023032E13D8D4
:101B7800DFE806F002500244461906F52A76B779DE
:101B880042F4936242F00102002F40D1367A42F0CB
:101B980040020EB142F020024669E260B769C268AD
:101BA8004FF0010C0CFA01F13943B16191692844F5
:101BB80041F00071916190F8ACC290F8AF5290F882
:101BC800AD7290F8AE6290F8B122B0F8B212023D50
:101BD8006CF39C53684267F3CE23684166F3CF33B6
:101BE80060F3514362F3934361F30A03032A08BF86
:101BF80043F0005323600020F0BC7047461942F4BC
:101C0800D36296F8AE6242F00102002EC4D042F4CC
:101C18008072C1E7461942F4087296F8AE6242F043
:101C28000102002EB8D042F4C072B5E72DE9F001E8
:101C38004D01441904F52E777A6800238AB1B4F867
:101C4800B24202F1FF3CA444BCFBF4FC1FFA8CFC3A
:101C5800BCF5807F5ED922024FF480767A60B44664
:101C680001E00126B446441994F8AE82B8F1000F99
:101C780005D0B4F8B22202FB0CF2C4F8BC2201F180
:101C88000D0C00EB4C1700EB810197F81481D1F88B
:101C9800904062F3120366F3DC4368F35E732361DA
:101CA800C378466907F58877012B04BFBB68636171
:101CB8002368B76807F0010787F0010767F35D73CA
:101CC80043F000436FF39E732360C378F3B9054470
:101CD80005F52A75AB79CBB9C2B16B7A032B23D83A
:101CE800DFE803F0021B021BC368DC6AD51CA4B240
:101CF800C5F38F05A54217D99C6944F020049C615F
:101D0800C37800EB4C10D0F818018BB10020BDE867
:101D1800F0017047CCF30906A5E73369D41C9BB2E0
:101D2800C4F38F049C4214D800EB4C10D0F818016F
:101D380092B203329210D1F8D040E7D00023013399
:101D480050F8041B21609A42F9D10020BDE8F00147
:101D58007047C3689C6944F080649C61C378D0E78D
:101D680000EB8101D1F89020136843F040435903F8
:101D780009D541690969C1F3074109B961F3DF73FD
:101D8800136000207047C168C96AC1F30741002980
:101D9800F4D013600020704700EB81014FF000423F
:101DA800D1F89030012161F3DC421A611A680020F1
:101DB80042F0004260F39E721A6070472DE9F00FFE
:101DC800DFF878B103F003040BEB84069B100BF1EA
:101DD800280886B008EB84181F2BA8BF1F231B2BCD
:101DE800D6F828610096D8BFDF1C0546D8F80460ED
:101DF800D8F80C00D8F80840CDF80480D4BF27EAFA
:101E0800E7771F273E413C4140FA07F70020039639
:101E18000494059702900FE006AE06EB870757F883
:101E2800106C002C01F1040140EA0600B8BF7642AC
:101E3800013A41F8046C73D055F8044B24F000477C
:101E4800032FE9DD0F2F09DCDDF80480002B58F89B
:101E58002760BABF5F42BE401E41E2E73F2F0DDC5C
:101E68000BEB8707DDF800C0D7F8F86086FB0C7C21
:101E7800DE1E002E4ADB4CFA06F6D2E77E04B6F1E7
:101E8800006F51DA7E054FF004080627B6F1005FAF
:101E9800BCBFB600B846DFF8A890DFF8A8C0264F48
:101EA800B6F1804FBCBF760008F101084E45C8BFA7
:101EB8006746DFF888C00CF11409C8BFCC46B146A4
:101EC80087FB09A9DCF804704F44B14687FB09A9D0
:101ED800DCF808704F44B14687FB09A9DCF80C70A0
:101EE8004F4487FB06960BEB8808DCF810C0D8F83F
:101EF800F871664486FB07C7FF00DDF800C087FB62
:101F08000C6CD8F818629E1B002EB4DA76426FF07B
:101F1800004848FA06F7BC450ADD6FF0004680E73E
:101F280006B0BDE8F00F704702274FF00008ADE794
:101F38000CFA06F675E700BFA9BDA0292C4D0108CB
:101F48009979825A632185102DE9F04F8FB0189D39
:101F580006906C690591022C0992089300F0FC80A8
:101F68000D240494089C4FF01608189D236A2A6CC7
:101F7800AD6807955B0802F101024FF000014FEAD6
:101F8800420218BF023D03920B9118BF0795B8F1A2
:101F9800000F00F0F280079CCDF808804FF0000990
:101FA800C4F1D00A4D464F46CDF804A0DFF8D4B1AD
:101FB800DDF82480CA46DDF8209003E0029DAC429B
:101FC80028D02546189CD9F83430E26B199833F993
:101FD80015106C1C204433F9146010F8013C761A73
:101FE8000BEB04000AB110F8012C0699134401EB1D
:101FF8008700039A019902FB031332460146FFF753
:10200800DDFE37444AEA000A00B10B95D8F80030E3
:102018009F42D3DB0B9AD146049D1A9C00230B2DBB
:1020280062612360E360A360636023616FDC05EB9A
:102038004503AA460B950C950D95079D199C01978C
:10204800C5F1D0050295059D1C44043D00940795F3
:10205800089C189F636B03EB4A020AF10101B2F96D
:102068002E30B2F93080019A0491C3EB0808069B20
:10207800002603EB820B4B464FEA8804D1463546CF
:102088009A46009BBA6A02992B4401EBC202DB7D97
:10209800039901FB032305990BEB060031444246E3
:1020A800FFF78CFE043726444AEA000A10B10BAA4F
:1020B80042F825900135032DE3D1019D08EB480333
:1020C8001D44B8F1000FD146019514DD079B1A464F
:1020D8004FEAC808224453F8041FCBF800101959D6
:1020E800CBF8041053F80810CBF8081093420BF102
:1020F8000C0BF0D1019D099C23689D422ADA009DB2
:10210800049C03350D2C009507D0A246A0E7B9FA28
:1021180089F001380FB0BDE8F08F019F099C189D28
:1021280027600BA90EC9A8691A9C002814BF0220B1
:10213800012061608A42A8BF114620609942ACBF65
:1021480021612361B9FA89F00138A260E3600FB018
:10215800BDE8F08F2F46E1E7AB6953B1089C2378BF
:102168000325002B14BF4FF006084FF0080804950C
:10217800FBE604939846089CF7E64246C146474664
:102188004AE700BF644F01082DE9F04F97B0824637
:1021980003911746DDF884B0002800F041830568F4
:1021A800002D00F03D8346680296002E00F038832B
:1021B8008468002C00F0348312681344D91D48BF8A
:1021C80003F10E01C9100EA8039A00F09FFC3968AC
:1021D800002940F086812B78002B40F0D380209D89
:1021E800209EED002A4604954FEACB053244294645
:1021F8005944120102EBC102029EBC4905952832DE
:1022080032444FEA4B16D5680796CBEB060E209E54
:1022180011F81580506901EB4501209D7601C5EB49
:10222800060C4FEA4E0E0EEB8C0C0228069604EBB9
:102238000C054E7800F055822098002800F0E081C7
:102248004FEA0B130833029A02991944D35808919C
:1022580004EB0E0072460190002B00F08A8245EADA
:1022680000039B0740F0EB82291D031D9D4238BFE8
:102278008842C0F0E48254F80E3044F80C300379F8
:102288002B7143796B71089A5368002B00F07E829A
:10229800079B06992098CBEB030252000B1A02EB1E
:1022A800830323442244991D901D41EA000E1EF029
:1022B800030F40F0F08203F10A0C02F10A0E714597
:1022C80038BF6045C0F0E782D2F80620C3F8062080
:1022D800019A937AAB72089A9368002B00F06E8289
:1022E800079B06992098CBEB030252000B1A02EBCE
:1022F80083032344224403F10B0102F10B0041EA5A
:10230800000E1EF0030F40F0BA8203F10F0C02F129
:102318000F0E714538BF6045C0F0B182D2F80B206E
:10232800C3F80B20019AD37BEB73089AD368002B70
:1023380000F03A82079BDDF818E0209ECBEB030201
:102348005200C6EB0E0302EB83032344144404F14A
:10235800100103F1100242EA0100800740F0638295
:1023680003F1140604F11400824238BFB142C0F0F0
:102378005A8222691A61019A137D2B7500236B75A5
:10238800AB758FE0209E2A6A029DF60033460496BC
:10239800209E33444FEACB06B4460596209E1B0187
:1023A800DC4403EBCC0CC6EB46139B000CF1280C69
:1023B800CBEB4B1103EB4101AC44611812F0010E59
:1023C800DCF80C30019103D0BBF1010F00F04D8116
:1023D800B3F5C87F80F2F680454D1A11D91785FBF1
:1023E8000265C1EB650505EB8501511A4FF000093F
:1023F800C3F3810203F0030314921295139115930A
:10240800C8464A46DCF81460022E00F027810021F5
:1024180002EB4202354B0A4403EB820393F8202077
:1024280093F821100A9293F8222093F823300B9105
:102438000C920D93BEF1000F5CD10AA90691022EF1
:10244800CCF83C8060D0019DDDF81890CDF81CA038
:1024580000266B1EB0460897CDF824B09A4659F866
:102468000670002F12DD12AADDF804B0B55808F185
:10247800FF330AEB08049B443C440EA8294600F0AD
:102488004BFB0BF8010FA345F7D1B8440436102EC7
:10249800E5D1019EDDF81CA0089FDDF824B00023DB
:1024A800B3757375209D049B059A029E03992B446E
:1024B8005A441B0103EBC20333440BEB450202F5FC
:1024C800FC729B6A4AF822300EA83A6800F08CFB2E
:1024D8003B68184400F007033B60C01017B0BDE824
:1024E800F08F0EA800F018FB75E600BF7C4F0108BE
:1024F80067666666BBF1010F00F0CE800AAA022E5D
:102508000692CCF83C809ED1DCF81830002B00F005
:102518006581019E00240EA8294600F0FDFA305579
:102528000134062CF7D14FF0010903230699019DC8
:10253800CDF81CA04FEA890212AE1644114405F1E9
:1025480017020696CDF824B000268A4608979346C7
:102558005AF80620002A20DD02EB0308019D069A9E
:1025680003EB43032B44945908EB480503F1170781
:102578005D4421460EA800F0CFFA214638700EA817
:1025880000F0CAFA214678700EA800F0C5FA0337A1
:1025980007F8010CAF42ECD1434609F10109B9F142
:1025A800040F06F10406D3D1019DDDF81CA0089F95
:1025B800DDF824B0002385F83D3085F83C3085F8F7
:1025C8003B306FE7B3F5FA7F2CDBB94DDCF8182008
:1025D800A3F5FA7385FB0315A5EBE37505EB450138
:1025E8005B1A00211295139315911491002A00F09B
:1025F800F7801493139589464FF00108022201E7EA
:1026080004460EA8414600F087FA285501340B2CE1
:10261800F7D10EA8314600F07FFA28550134152C61
:10262800F7D13FE7A3F5C873A24DDCF81460991001
:1026380085FB0105DA17C2EB650505EB850000226D
:1026480003F00303091A022E91461592904612953B
:10265800149313914FF001027FF4D9AEDCF81830CF
:10266800002B0CBF01210221D2E65A10B32A03F035
:10267800010940F3BA80F32A00F3F080B43A151147
:10268800C2F38101002302F0030214921295139100
:10269800159398460422B5E60DF1480EBEE80F00E2
:1026A80004F1FC0ECDF81CE00DF1280ECDF818E071
:1026B800DDF81CE0C4F8FC00CEF80410CEF80820C1
:1026C800CEF80C30DDF818E0C4F8F890BEE80F003A
:1026D800C4F80C01C4F81011C4F81421C4F8183156
:1026E800ADE69269002A77D01C460EA8414600F054
:1026F80013FA28550134082CF7D14FF0030909EBD8
:1027080049042C44173441460EA800F005FA414606
:1027180020700EA800F000FA414660700EA800F084
:10272800FBF909F10109B9F1060FA07004F10304DE
:10273800E9D1C8462C4631460EA800F0EDF93146DD
:1027480084F829000EA800F0E7F9314684F82A0039
:102758000EA800F0E1F9B8F1010884F82B0004F1A3
:102768000304E8D185F83D8085F83C8085F83B80F6
:1027780098E699460EA8414600F0CEF905F80900FA
:1027880009F10109B9F1060FF4D17CE54FF006090A
:102798000EA8414600F0C0F905F8090009F1010941
:1027A800B9F10B0FF4D196E510240EA8314600F0CC
:1027B800B3F928550134152CF7D1DFE54FF00B0894
:1027C8000EA8314600F0A8F905F8080008F101083C
:1027D800B8F1100FF4D1A8E5914690E79946A5E61F
:1027E80091464FF0010802220CE63349334881FB39
:1027F8000251DB17C3EBE10505EBC503A2EB83022E
:1028080080FB0263A3EBE27303EB4301A2EB4102FB
:102818000021149212951393159188460322F1E52D
:102828004FF0FF305AE6019E337C2B74737C6B7437
:10283800B37CAB74F37CEB74337D2B759EE5A35CA2
:1028480004F80C30019A53786B709378AB70D37896
:10285800EB7013792B7153796B7114E5144DF43ABD
:1028680085FB0205A5EBE27505EB4503D21A0023AB
:10287800139212951593149398460522C2E5019A6E
:10288800D37AEB72137B2B73537B6B73937BAB7392
:10289800D37BEB7349E5019A9379AB71D379EB71EB
:1028A800137A2B72537A6B72937AAB7213E500BF6B
:1028B8005655555567666666398EE338ABAAAA2A17
:1028C800034640689A68013A4100002AF0B44FEA8A
:1028D800D07059609A6001DBF0BC7047D968032951
:1028E800C2F100022BDC00245C60002946D01D6880
:1028F8006C1C1C602C7801294FEA04245C600CD005
:10290800AE1C1E606E783443240202295C6004D039
:10291800EE1C1E60AD782C432402C1F10305ED00C6
:10292800AC40C2F1200524FA05F594400026C2EB1C
:10293800C101DE6028435C609960F0BC70471C6888
:102948002546661C1E6015F8026B1D6035065D6025
:102958006778E61C45EA07455D601E60A778261D76
:1029680045EA07255D601E60E6780C1F3543C2F115
:102978002001DC6005FA02F4CD40DBE70C460D4689
:10298800D4E700BF034640689A68053A4101002A27
:10299800F0B44FEAD06059609A6001DBF0BC704730
:1029A800D9680329C2F100022BDC00245C600029ED
:1029B80046D01D686C1C1C602C7801294FEA042441
:1029C8005C600CD0AE1C1E606E7834432402022971
:1029D8005C6004D0EE1C1E60AD782C432402C1F16B
:1029E8000305ED00AC40C2F1200524FA05F594403A
:1029F8000026C2EBC101DE6028435C609960F0BC30
:102A080070471C682546661C1E6015F8026B1D6021
:102A180035065D606778E61C45EA07455D601E601F
:102A2800A778261D45EA07255D601E60E6780C1F1D
:102A38003543C2F12001DC6005FA02F4CD40DBE742
:102A48000C460D46D4E700BF034640689A68033A2F
:102A5800C100002AF0B44FEA507059609A6001DB57
:102A6800F0BC7047D9680329C2F100022BDC0024AE
:102A78005C60002946D01D686C1C1C602C780129FC
:102A88004FEA04245C600CD0AE1C1E606E783443A0
:102A9800240202295C6004D0EE1C1E60AD782C4331
:102AA8002402C1F10305ED00AC40C2F1200524FA6F
:102AB80005F594400026C2EBC101DE6028435C6046
:102AC8009960F0BC70471C682546661C1E6015F8A6
:102AD800026B1D6035065D606778E61C45EA0745B0
:102AE8005D601E60A778261D45EA07255D601E60AB
:102AF800E6780C1F3543C2F12001DC6005FA02F4C8
:102B0800CD40DBE70C460D46D4E700BF002302604A
:102B1800C1604360836070474268F0B4846801F024
:102B28001F01034602FA01F5C1F11F00611AC240F4
:102B380000295D604FEA5200996001DBF0BC7047E4
:102B4800DA68032AC1F100012BDC00245C60002A4A
:102B580046D01D686C1C1C602C78012A4FEA04249E
:102B68005C600CD0AE1C1E606E7834432402022ACE
:102B78005C6004D0EE1C1E60AD782C432402C2F1C8
:102B88000305ED00AC40C1F1200524FA05F58C40A1
:102B98000026C1EBC202DE6028435C609A60F0BC8C
:102BA80070471C682546661C1E6015F8026B1D6080
:102BB80035065D606778E61C45EA07455D601E607E
:102BC800A778261D45EA07255D601E60E678141F74
:102BD8003543C1F12002DC6005FA01F4D540DBE79A
:102BE80014461546D4E700BF10B404688368611A18
:102BF800C3EBC100801A5DF8044B704730B103681D
:102C080023B15869003018BF012070474FF0FF30DA
:102C1800704700BF2DE9F00F84B0002800F0D8807D
:102C28000368002B00F0D4800A78FF2A40F0D08097
:102C38004A7802F0E004E02C40F0CA80D2089407F9
:102C48001ABF02F0010282F0010202221A7091F802
:102C58000180C8F34108C8F104045C6091F801C020
:102C680000940CF0010C8CF0010CC3F808C08D78AE
:102C78002D09DD608C78C4F381041C618E78C6F35D
:102C880040065E6101968E7806F001069E61CE7858
:102C9800B6091E7791F80390C9F30119C3F820907B
:102CA80091F80390C9F3C009C3F8249091F80390F0
:102CB800C9F38009C3F8289091F80390032C09F010
:102CC8000309C3F82C9000F08380009F042F7FD065
:102CD8000F2D7DD04FF0DE0A0AFB02FA4FF04A0BA7
:102CE800DFF800910BFB04AAD144012EC3F83490FD
:102CF80005D04FF00009032EC3F8209065D00227B5
:102D080003975700C8F1030BB8469044DFF8D890F2
:102D1800029708EB0B0A039FC0F8BC77009F39F9AC
:102D28001AA0C0F8D077002ADFF8C09080F8D4271E
:102D380008EB040714BF012202229AFBF2FA59F8A1
:102D48002770C0F8C8A7C0F8C427C0F8C07745B333
:102D5800C8EB0818C4EB0414CBEB0B1204EB080700
:102D68009044029ADFF888901C4C032E18BF013259
:102D78002F44164645441A4A39F9177032F9152076
:102D880034F91640C2EB42153C1B02EB8502043CA9
:102D9800019DA4EB4C042C44D200C0F8CC47C0F8E9
:102DA800B827BCF1000F06D10420C3F830C004B026
:102DB800BDE8F00F704708794A7942EA00220620F8
:102DC8001A6304B0BDE8F00F70470127039798E72E
:102DD8004FF0FF3004B0BDE8F00F704700770108EE
:102DE8002877010854730108147701083878010816
:102DF800F07501082DE9F04F814689B0002800F0F0
:102E08007B850768002F00F0778542680292002AC8
:102E180000F072853C78002C40F021854D780E78C2
:102E2800CB783A7F88782D0445EA0665032A45EA77
:102E380003034FF0170243EA00230692029A0CBFDD
:102E48000D201C2001F104014FEA432604AD4FEA8E
:102E5800D3530491079014BF0321052105962846F2
:102E680013600CBF112320230393FFF755FED9F8F5
:102E7800BC17029A0029506010DDA046141D04F109
:102E880010062846FFF71CFD44F8040FB442F8D199
:102E9800D9F8BC3708F101084345F0DCD9F8C43744
:102EA800002B40F373820022009292469046D9F894
:102EB800BC17029A0192002940F35E82059B069A8C
:102EC800019C002650E0023B9100002B06930591DF
:102ED8004FEA9272C0F26282E2632846FFF7F0FC82
:102EE80020642846FFF74EFD60642846FFF74AFD38
:102EF800C4F84CA0A0642846FFF7A6FD2065284624
:102F0800FFF7A2FD60652846FFF79EFDE36BA0650D
:102F1800002B40F08580E26DE362A3626363C2F137
:102F2800140323663B78002B76D00020069A059B75
:102F38006066013A5900002A059106924FEAD3705B
:102F4800C0F243819B00C90F013A002AA06606928D
:102F58000593C0F2CE81E166D9F8BC170136B142BB
:102F680004F1480440F306820C3A1903002A069239
:102F780005914FEA1350C0F29F805B05C90D093ACD
:102F8800002AA06206920593C0F2698118021B0EFE
:102F9800083A002AE1620692059048DB3A782363F2
:102FA800002A14BF092104212846FFF7B5FD069B16
:102FB80005996063013B4A00002B05924FEAD17BDB
:102FC8000693C0F2C380C4F838B0BBF1000F7FF499
:102FD8007AAFC4F83CB0C4F840B02846FFF7D2FC3A
:102FE80060642846FFF7CEFCA0642846FFF7CAFCB9
:102FF800069B059AE064043B1101002B05914FEAFA
:1030080012720693C0F20F82E2652846FFF71CFD94
:103018003B782066002B88D12846FFF751FC85E7CE
:10302800022B00F060830723E3650D2379E70799F6
:103038000329C2F1000200F3FC82CDF814800029B4
:1030480000F0C983049800F1010ECDF810E090F863
:1030580000C001294FEA0C2ECDF814E000F0DC8303
:1030680000F1020CCDF810C090F801C04EEA0C0C2B
:103078004FEA0C2E0229CDF814E000F0C58300F1C8
:10308800030CCDF810C090F802C0C1F103004EEA5D
:103098000C0E4FEA0E2EC0000EFA00F0C2F1200E00
:1030A80020FA0EFE9040CDF81C80C2EBC10143EA25
:1030B8000E030691059071E707990329C2F10002F2
:1030C80000F3F681CDF81480002900F07683049B84
:1030D80003F1010ECDF810E093F800C001294FEA82
:1030E8000C2ECDF814E008BF4FEA0C6C1DD003F18C
:1030F800020CCDF810C093F801C04EEA0C0C4FEA50
:103108000C2E0229CDF814E000F08E8303F1030C95
:10311800CDF810C093F802C0C1F103034EEA0C0EBB
:103128004FEA0E2EDB000EFA03FC0CFA02F3C2F192
:10313800200E2CFA0EFC4FEAD35E5B02CDF81C8001
:10314800C2EBC10240EA0C00714618E7079903294F
:10315800C3F1000000F3DE81CDF81480002900F0EF
:103168003783049B5A1C049293F800E001294FEA24
:103178000E22059200F03A8303F1020ECDF810E01A
:1031880093F801E042EA0E0E4FEA0E220229059258
:1031980000F0248303F1030ECDF810E093F802E069
:1031A800C1F1030342EA0E021202DB009A40C0F1A9
:1031B800200E22FA0EFE8240CDF81C80C0EBC1031F
:1031C8004BEA0E0B06930592FDE607990329C2F117
:1031D800000200F3FC81CDF81480002900F0F4828D
:1031E800049B03F1010CCDF810C093F800B001293D
:1031F8004FEA0B2CCDF814C008BF4FEA0B6B1DD05B
:1032080003F1020BCDF810B093F801B04CEA0B0BA8
:103218004FEA0B2C0229CDF814C000F0F28203F11A
:10322800030BCDF810B093F802B0C1F103034CEAD8
:103238000B0C4FEA0C2CDB000CFA03FB0BFA02F325
:10324800C2F1200C2BFA0CFB4FEAD37C5B00CDF8C3
:103258001C80C2EBC10240EA0B00614674E6079B82
:10326800032BC2F1000200F38081CDF81480002BFB
:1032780000F09F82049800F1010ECDF810E090F85C
:1032880000C0012B4FEA0C2ECDF814E008BF4FEA1E
:103298000C6C1DD000F1020CCDF810C090F801C0E4
:1032A8004EEA0C0C4FEA0C2E022BCDF814E000F07D
:1032B800A58200F1030CCDF810C090F802C0C3F14C
:1032C80003004EEA0C0E4FEA0E2EC0000EFA00FC68
:1032D8000CFA02F0C2F1200E2CFA0EFC4FEA106E26
:1032E8000002CDF81C80C2EBC30241EA0C01734610
:1032F8004EE607980328C2F1000C00F3C981CDF807
:103308001480002800F05D82049B5A1C049293F8F4
:1033180000B001284FEA0B22059200F0918203F1D8
:10332800020BCDF810B093F801B042EA0B0B4FEA4C
:103338000B220228059200F07A8203F1030BCDF8E4
:1033480010B093F802B0C0F1030342EA0B02120274
:10335800DB0002FA03F3CCF1200B23FA0BFB03FA90
:103368000CF3CDF81C80CCEBC00241EA0B010692AD
:103378000593F0E5D9F8C437009A01320092019A12
:1033880090320192009A9A42FFF695AD029A0398FC
:103398001368C9F8D83709B0BDE8F08F0799032931
:1033A800C3F1000300F3D681CDF81480002900F0A2
:1033B8005382049800F1010ECDF810E090F800C097
:1033C80001294FEA0C2ECDF814E000F08D8200F1AF
:1033D800020CCDF810C090F801C04EEA0C0C4FEA70
:1033E8000C2E0229CDF814E000F0768200F1030CCF
:1033F800CDF810C090F802C0C1F103004EEA0C0EDF
:103408004FEA0E2EC0000EFA00F0C3F1200E20FA8B
:103418000EFE9840CDF81C80C3EBC10142EA0E02B3
:103428000691059058E507990329C3F1000300F3B5
:103438006281CDF814B0002900F00B82049800F1E5
:10344800010ECDF810E090F800C001294FEA0C2ECB
:10345800CDF814E000F0388200F1020CCDF810C06D
:1034680090F801C04EEA0C0C4FEA0C2E0229CDF858
:1034780014E000F0218200F1030CCDF810C090F8A0
:1034880002C0C1F103004EEA0C0E4FEA0E2EC00036
:103498000EFA00F0C3F1200E20FA0EFE9840CDF887
:1034A8001C80C3EBC10142EA0E0206910590ABE510
:1034B800049B9E4603F1010CCDF810C01EF802CB08
:1034C800CDF810E04FEA0C6ECDF814E093F801C087
:1034D8004EEA0C4E03F1030CCDF814E0CDF810C001
:1034E80093F802C04EEA0C2E03F1040CCDF814E058
:1034F800CDF810C093F803C04EEA0C0C0CFA02F396
:103508000439C2F120024FEAD35E07912CFA02FC7B
:103518005B0217E6049B1A4603F1010ECDF810E092
:1035280012F802EB04924FEA0E62059293F801E05A
:1035380042EA0E4203F1030E0592CDF810E093F82B
:1035480002E042EA0E2203F1040E0592CDF810E0E3
:1035580093F803E0043942EA0E0EC0F120030EFA94
:1035680000F207912EFA03FE2AE60498864600F137
:10357800010CCDF810C01EF802CBCDF810E04FEAD0
:103588000C6ECDF814E090F801C04EEA0C4E00F134
:10359800030CCDF814E0CDF810C090F802C04EEA44
:1035A8000C2E00F1040CCDF814E0CDF810C090F802
:1035B80003C04EEA0C0C0CFA02F0043BC2F12002E4
:1035C8004FEA106E07932CFA02FC00028DE6049B6A
:1035D8009C4603F1010BCDF810B01CF802BBCDF8E6
:1035E80010C04FEA0B6CCDF814C093F801B04CEA48
:1035F8000B4C03F1030BCDF814C0CDF810B093F8C1
:1036080002B04CEA0B2C03F1040BCDF814C0CDF832
:1036180010B093F803B04CEA0B0B0BFA02F3043921
:10362800C2F120024FEAD37C07912BFA02FB5B0020
:1036380011E60498864600F1010CCDF810C01EF87A
:1036480002CBCDF810E04FEA0C6ECDF814E090F8FC
:1036580001C04EEA0C4E00F1030CCDF814E0CDF891
:1036680010C090F802C04EEA0C2E00F1040CCDF800
:1036780014E0CDF810C090F803C0081F4EEA0C0EF5
:10368800C2F1200107900EFA02F02EFA01FE0EE5B3
:10369800049B1A4603F1010BCDF810B012F802BBD7
:1036A80004924FEA0B62059293F801B042EA0B428A
:1036B80003F1030B0592CDF810B093F802B042EA7B
:1036C8000B2203F1040B0592CDF810B093F803B068
:1036D800043842EA0B0BCCF120020BFA0CF30790EA
:1036E8002BFA02FB41E6236C002B7FF49CAC0823E9
:1036F800E3650C2315E40498864600F1010CCDF827
:1037080010C01EF802CBCDF810E04FEA0C6ECDF8D1
:1037180014E090F801C04EEA0C4E00F1030CCDF80D
:1037280014E0CDF810C090F802C04EEA0C2E00F15B
:10373800040CCDF814E0CDF810C090F803C0081FB1
:103748004EEA0C0EC3F1200107900EFA03F02EFA90
:1037580001FEA8E60498864600F1010CCDF810C0D9
:103768001EF802CBCDF810E04FEA0C6ECDF814E04D
:1037780090F801C04EEA0C4E00F1030CCDF814E0AD
:10378800CDF810C090F802C04EEA0C2E00F1040CDF
:10379800CDF814E0CDF810C090F803C0081F4EEA29
:1037A8000C0EC3F1200107900EFA03F02EFA01FE69
:1037B80034E618469E469C4693E50B468E468C4654
:1037C800BCE403468346CCE50B468C468B463EE577
:1037D8000A468E46F0E408468E4664E44FEA0E42F6
:1037E800C0F1200E22FA0EFE8240E5E44FEA0E6296
:1037F800C0F1200E22FA0EFE8240DDE44FEA0C4CA6
:1038080066E54FEA0B4B19E54FEA0C40C2F1200E72
:1038180020FA0EFE904046E44FEA0C60C2F1200EFA
:1038280020FA0EFE90403EE44FEA0C4C7DE44FEA4D
:103838000B43CCF1200B23FA0BFB03FA0CF390E5B6
:103848004FEA0B63CCF1200B23FA0BFB03FA0CF3C2
:1038580087E55846DE4622E608468E46DAE54C7885
:103868000D78CB783A7F8878240444EA0564032AE3
:1038780044EA03034FF0180243EA00230692029A2F
:103888000CBF05200D2001F104014FEA032404AD0B
:103898004FEA136304910790059414BF0221012194
:1038A800136028460CBF092311230393FFF734F94B
:1038B800029A5060FFF7F2BA4FEA0C40C3F1200EAB
:1038C80020FA0EFE9840EAE54FEA0C60C3F1200E9C
:1038D80020FA0EFE9840E2E54FEA0C40C3F1200EB4
:1038E80020FA0EFE984095E54FEA0C60C3F1200ED1
:1038F80020FA0EFE98408DE54FF0FF304BE500BFF3
:103908002DE9F04F8FB00691002800F02781076855
:10391800002F00F0238146680996002E00F01E81D2
:1039280086680896002E00F01981C468002C00F003
:10393800158106690796002E00F01081D0F8BC2783
:10394800002306F546769A420D930C930A9635DDC8
:10395800B046069E0B9406EBC602099E06EB0212C1
:10396800069EC6EB461A089E9B4606EB8A0A434605
:1039780002F1280CA14604F59056B846544665460F
:1039880082461F46009501940297484632464346B0
:103998000799FEF7D9FAB060DAF8BC370BF1010BDA
:1039A8005B4505F1480504F13E0407F1180709F5E0
:1039B800106906F10406E5DC0B9C4746386A0028C6
:1039C80069D041F20823E358002B40F3858041F287
:1039D8000C23E358002B7FDD410800F0C280C207AA
:1039E8000CD5079ED6F83033002B40F0AD80D6F8C2
:1039F80044237B6B013233F9121008E004F590522E
:103A080041F204231168E3589942B8BF19460CAD36
:103A180020462A4603F0AEFD386AC3071FD504F5D1
:103A280090523B781168069E002B37D106EBC603EF
:103A3800099E06EB03130A9E0096069E401001900D
:103A4800C6EB461B089ED3F88830029306EB8B031F
:103A580020463E3303953A4603F0C2FD386AD0B19A
:103A680004F5905141F204230868E2580C9E0D9D1C
:103A7800B6FA86F641F2082C41F20C279042A8BF0C
:103A88000246013EB5FA85F5013D44F80C60E55162
:103A98000A60E25000200FB0BDE8F08F06EBC602C6
:103AA800099E06EB0212089E06F1F8030A9E00968C
:103AB800069E01934010C6EB461B089E0290D2F862
:103AC8008820039206EB8B0320463E3304953A4642
:103AD80003F024FF386AC2E704F590531D68002DEF
:103AE80015DD214904EB850523466FF0404603E0C8
:103AF800AB4243F8041C0AD053F8042B8A42F7DB84
:103B0800B2F1804FA8BF43F8046CAB42F4D141F244
:103B18000423E558002D7FF75FAF04F510631249C1
:103B280003EB85056FF0404604E043F8041CAB4204
:103B38003FF452AF53F8042B8A42F6DBB2F1804FC0
:103B4800A8BF43F8046CF2E7D6F840237B6B03EB7D
:103B58004203B3F9301001EB410158E74FF0FF3051
:103B680099E701200CAD5AE7010000C0022A2DE9AF
:103B7800F00765D0694C036802EBC20204EB02123D
:103B88001C46D2F88C60956C85FB04740C6086FB2F
:103B980003434B644368D2F88860D56C1C4685FBA8
:103BA80004744C6086FB03430B648368D2F884601A
:103BB800156D1C4685FB04748C6086FB0343CB6340
:103BC800C368D2F88060556D1C4685FB0474CC60D0
:103BD80086FB03438B630369D66F956D1C4685FB93
:103BE80004740C6186FB03434B634369966FD56D80
:103BF8001C4685FB04744C6186FB03430B63836995
:103C0800566F156E1C4685FB04748C6186FB034356
:103C1800CB62C369166F556E1C4685FB0474CC6174
:103C280086FB03438B62036A946ED06E1A4684FB4C
:103C380002520A6280FB03234B62BDE8F00770471B
:103C4800364B8468D3F838C18CFB04248269D3F8D6
:103C5800205185FB026222440A604468D3F83C5133
:103C680085FB0424C269D3F8246186FB02722244CE
:103C78004A600768D3F8404184FB0727026AD3F8F3
:103C8800286186FB02823A448A600768D3F8442197
:103C9800B84682FB0868076AD3F82C6186FB079749
:103CA8004744CF604668D3F84881B14688FB096924
:103CB800C769D3F8306186FB07A74F440F61866850
:103CC800D3F84C9189FB06768769D3F8343183FBA6
:103CD80007A73E444E6143698CFB03638B6103690C
:103CE80085FB0363CB61C36884FB03530B62C36822
:103CF80082FB03434B62036988FB03238B6242699F
:103D080089FB02320023CA624B640B64CB638B636A
:103D18004B630B63BDE8F007704700BF4883010899
:103D28002DE9F00F844682B0BBBB12F0010030D001
:103D3800DCF88021DCF88000DCF88073DCF8806433
:103D4800DCF88055DCF88046DCF88017C2F1000802
:103D5800DCF88022CCF88081C2F10009DCF88028E8
:103D6800CCF88092C2F1000A7F42424276426D420C
:103D7800644249421846CCF88073CCF88064CCF889
:103D88008055CCF88046CCF88017CCF880A8CCF8C1
:103D9800802002B0BDE8F00F7047C3F11F074FF055
:103DA800010808FA07F812F001000CF5106208F192
:103DB800FF3801923FD00020DCF88060DCF800403A
:103DC80076424FEAE67A4FEAE47946FA07FB88EA50
:103DD8000A05DA4508BF354689EA080244FA07F6B3
:103DE800B14508BF22469D409A40CCF88050CCF897
:103DF80000200C684FEAE47944FA07FB88EA090ACC
:103E0800D94518BF5446EE174FEAE27B75408BEA56
:103E18000202CBEB0202AD1B1543019A0CF5807C24
:103E28009C40944541F8044B40EA0500C4D102B0D7
:103E3800BDE8F00F7047DCF80060DCF880404FEA1E
:103E4800E67A4FEAE47946FA07FB8AEA0805DA4592
:103E580008BF354688EA090244FA07F6B14508BFA3
:103E680022469D409A40CCF88020CCF800500C683F
:103E78004FEAE47944FA07FB88EA090AD94518BFEA
:103E88005446EE174FEAE27B75408BEA0202AE1BFE
:103E9800CBEB0205019A0CF5807C9C4035436245CA
:103EA80041F8044B40EA0500C5D172E72DE9F04F0F
:103EB800D3B026912392002801F09C800368002B40
:103EC80001F0988044682594002C01F09380C5681F
:103ED8001A95002D01F08E8040692790002801F086
:103EE8008980269EDDF88C901978DDF89880DDF8B9
:103EF8008CA05A6BA84FF6004FEAC9093046002932
:103F080040444B4614BF062108210001534400EBEE
:103F1800C30032F911202996204487FB02C4C16BE3
:103F2800CDF8A090D217C2EBA40212B202292492B3
:103F380001F047800AF5906340F2262255F82330B5
:103F4800934240F3BC8640F23625202616951F275B
:103F58001096289BDDF88C801A98434400EB0320C8
:103F6800002F2A9041F33A808C4B58681190D869F9
:103F7800079003F134001E689968DA681C695D6966
:103F88000E9690E8010C9E6909910D92196A5A6A79
:103F98000C940B950A96DD6A9E6A1C6B2A9B069107
:103FA80008920F96483353F804CCD3F800800E9A41
:103FB800614682FB01614246119E86FB02928A1A83
:103FC800520043F8042C0E9981FB082886FB0C2C20
:103FD80008EB0C0253F808CCD3F80480099E520071
:103FE8001A60614686FB012142460D9E86FB0292BD
:103FF8008A1A520043F8082C099981FB082886FB85
:104008000C2C08EB0C0253F80CCCD3F808800C9E4F
:1040180052005A60614686FB012142460B9E86FB90
:1040280002928A1A520043F80C2C0C9981FB08283A
:1040380086FB0C2C08EB0C0253F810CCD3F80C8040
:104048000A9E52009A60614686FB01214246079EFD
:1040580086FB02928A1A520043F8102C0A9981FBB7
:10406800082886FB0C2C08EB0C0253F814CCD3F868
:104078001080069E5200DA60614686FB01214246A6
:10408800089E86FB02928A1A520043F8142C06995D
:1040980081FB082886FB0C2C08EB0C0253F818CC83
:1040A800D3F814800F9E52001A61614686FB0121E5
:1040B800424685FB02928A1A520043F8182C86FB66
:1040C800082885FB0C2C08EB0C0253F81CCCD3F801
:1040D800188052005A61614684FB0121424680FBE8
:1040E80002928A1A520043F81C2C84FB082880FB91
:1040F8000C2C08EB0C0253F820CCD3F81C8052008F
:104108009A6161468AFB012142468BFB02928A1A18
:10411800520043F8202C8AFB08288BFB0C2CC44443
:104128004FEA4C02013FDA617FF43CAF299B269F9E
:10413800DDF88C80289A259C3B441B01424403EB04
:10414800C20323444546196C1A9A279B169F124EA0
:10415800AD002A4402F590522B4410682C958742F2
:10416800A8BF384600F11105106003F5D85441F690
:10417800083041F6103286FB0586ED17C5EBA6051B
:10418800246818589A58219522941D901E92002947
:1041980000F00B8704E000BF398EE338B8810108CE
:1041A8002998269D239E289B279FDDF89480DDF87B
:1041B8006890109C28443344000100EBC30006F2C9
:1041C800824207EBC3112830804401F5905107EB78
:1041D800032359F82220CDF86C80002C11912B93E1
:1041E8001F9240F3E686DDF8A8800A9300251A9509
:1041F8000C950691C3461B9EB369776916972BB138
:10420800249C0C9DAC42C8BF002716971D9EDDF864
:1042180030801E9F1F9CB845B8BF0026062C1996F3
:1042280040F3BC85DBF844500D950BF13404F0CC19
:104238000D9BDBF83000DBF82C10DBF82820FF1A88
:10424800F61BAD1B641B0E97001B0D9F0795091AE3
:10425800DBF824500B90521AF61BDBF82000DBF831
:104268001C700892A41BAB1AC51A091BDBF81800AE
:1042780015947A1B5B1ADBF814701893C3EB020CC5
:10428800C2EB000EDBF81020CDF870C0CEEB0700B3
:10429800DBF80C70089C1791C0EB0208C8EB07020A
:1042A800CCEB0000DBF808700F90C0EB020AC2EB01
:1042B8000709CDF824A0DBF80420099B0E9F0E9671
:1042C800C9EB020ADBF80060C3EB0A0C0023CAEB57
:1042D800060A089307980B9EC5EB08034FEA6A0A7B
:1042E800C6EB0A06DB1B04EB090248444FEA6C0CD8
:1042F800CDF848C013964544F446B844161A1493AA
:10430800B04F87FB0C3CDDF81CE0AE49C4EB090953
:10431800CEEB0907B94681FB0939AB4C2B4684FB28
:104328000313AA4F414687FB0141C5EB0807DFF895
:10433800988288FB0747DFF894E28EFB0545A8F1D1
:104348007C68A8F5DC283446A8F5A17888FB04E445
:10435800DFF8808288FB00E0A8F12F58A8F5EA284A
:10436800A8F1E90888FB02E2DFF8688288FB06E624
:10437800DDF82CE040000AEB6E0A76004FEA4C0E9E
:1043880049006D0001EB4301C5EB470500EB440311
:10439800C6EB42020AEB0E044FEA4907139EDDF80A
:1043A8005090CEEB0A0001EB050804EB010A06EB7E
:1043B800690E014400EB05092544C8EB0404C8EB69
:1043C800000803EB0A002E90DDF84CA01498D61ACA
:1043D800C0EB0A0C91440EEB070AC6EB0800C7EBCA
:1043E8000E073444AA1A0F9EDDF86080179DDDF889
:1043F80038E03190C91A099B0D9833941D449E44A6
:10440800C8EB06031B1A36910B931299189B159C3F
:10441800CDF8C8C0349233443044DDF87080CDF80C
:10442800BCA03597CDF8C090CEEB0502C4EB010CCB
:10443800644E86FB0818DDF82490DDF85CA00E9920
:10444800CAEB0907C1EB070986FB09195E4E1C4632
:1044580086FB04145D4F014687FB0161DFF868A104
:10446800C01A8AFB006087FB0363AAF17C6AAAF57D
:10447800DC2A1746AAF5A17A8AFB0767DFF854A158
:104488008AFB0E6EAAF12F5AAAF5EA2AAAF1E90ABE
:104498008AFB0565DFF83CA18AFB02625B00C3EB7F
:1044A80040061298159B490001EB4401520000EBAD
:1044B80063044FEA4800C2EB45024FEA4E03251851
:1044C80003EB4703201A01EB060805EB010A0B9CD6
:1044D8004FEA4907014400EB06092E44C8EB0505DD
:1044E800C8EB00080AEB0300DDF82CA037900CEBB2
:1044F800640E1998D41ACAEB0C0C91440EEB070AF7
:10450800C4EB0808C7EB0E072544B61AC91ACDF83C
:10451800ECC0CDF8E0A03E97CDF8E490CDF8E88067
:104528003C953D963F91002840F0D883169B002B80
:1045380040F0D48326480A9F069DCDF82CB09946B2
:104548001E4600F1640E36AC0DF1B40CB846079364
:10455800636A5EF8041D54F8042981FB03A39210D2
:104568009918D5F800A045F8041B9B1ACAF1000257
:1045780050F8081CD21A82FB01B103EB810150F8F4
:10458800043C82FB03B3CAEB83034FEAE37ACA17FE
:104598008AEA030BCAEB0B0A82EA010BC2EB0B0295
:1045A80042EA0A0A46EA0A06644548F8091000F190
:1045B8000800C7F8803809F18009A7F18007079635
:1045C800C6D109E0A1EBD96E8BBE0D627E1A3A16F0
:1045D800F0720108322E0E7E089B0A9806990C9AF2
:1045E800DDF82CB0FFF79CFB0A9D0C9CDDF8688079
:1045F800043530430A95069E109D0134243648EA56
:104608000008AC420C940BF1480B0696CDF8688074
:104618007FF4F1AD2A9E119F05EBC50306EBC30697
:1046280007EB8307109D2A961197219EB54280F2C9
:10463800B0821F9FDDF844B0DDF8AC902D95C7F12E
:1046480007080DF5807A062FCDF8208009EB85093B
:10465800C8BF4FF00008CDF828A0DA46DDF8A8B0AA
:10466800CDF88080CDF838901D9E1E9C109D1F9F10
:10467800AC42C8BF0026062F069600F3A0809BE830
:104688000C00DDF8208042FA08F243FA08F38BE8C0
:104698000C00DAF8003043FA08F3CAF80030DBF807
:1046A8000820DBF80C3042FA08F243FA08F3CBF89A
:1046B8000820CBF80C30DAF8043043FA08F3CAF8CB
:1046C8000430DBF81020DBF8143042FA08F243FA21
:1046D80008F3CBF81020CBF81430DAF8083043FA96
:1046E80008F3CAF80830DBF81820DBF81C3042FA67
:1046F80008F243FA08F3CBF81820CBF81C30DAF8A4
:104708000C3043FA08F3CAF80C30DBF82020DBF849
:10471800243042FA08F243FA08F3CBF82020CBF809
:104728002430DAF8103043FA08F3CAF81030DBF80E
:104738002820DBF82C3042FA08F243FA08F3CBF8C9
:104748002820CBF82C30DAF8143043FA08F3CAF8EA
:104758001430DBF83020DBF8343042FA08F243FA40
:1047680008F3CBF83020CBF83430DAF8183043FAB5
:1047780008F3CAF81830DBF83820DBF83C3042FA86
:1047880008F243FA08F3CBF83820CBF83C30DAF8D3
:104798001C3043FA08F3CAF81C30DBF84020DBF879
:1047A800443042FA08F243FA08F3CBF84020CBF839
:1047B8004430DAF8203043FA08F3CAF82030DBF83E
:1047C8003C50DBF83040DBF82400DBF81810DBF84D
:1047D8000C20DBF80030DFF8E891641B001B091A95
:1047E800571A401BC7EB030E3F1A4FEA6E0E7F1095
:1047F80089FB01310EEB64064A0002EB060803460A
:10480800C4EB0E0EB61A89FB03235B0007EB6502A7
:1048180003EB020C674880FB0C1C674C7F1B4FEABC
:104828008C0C84FB0717654DD31ABF0085FB032347
:10483800DBF84090DBF83420DBF82850DBF81C402C
:10484800DBF81000C9EB0202AD1A9B0008EB0C0163
:10485800641BCCEB080C0EEB0708C7EB0E0EF71821
:10486800F31ADBF804602E91001BC9EB0505311A19
:10487800401B3097CDF8CCC0CDF8BC80CDF8C8E04F
:104888003193491040104E4F87FB043401EB620C02
:10489800640004EB0C0E8A1AC4EB0C0C87FB05357C
:1048A8006D0000EB6903EF18DFF8088188FB071734
:1048B800C9EB00010846BF00DFF8FC9089FB001037
:1048C8004FEA80085B1B3D4880FB0313DBF84490EC
:1048D800DBF83810DBF82C60DBF82050DBF81440EC
:1048E8009B00C3EB0C0063441293C9EB0101C8EBB6
:1048F80002034244761A0F92C7EB0E027744AD1BAF
:104908001697DBF808703790641B381BC9EB06064E
:10491800129F3697A41B3893169F0F9B3593399295
:10492800349740106410DFF8988088FB053500EB59
:1049380061036D00411AE8185D1B88FB0636760096
:1049480004EB6902B318DFF86CC08CFB0373DFF863
:1049580068E0C9EB04049B008EFB0474174F961B98
:10496800A40087FB0626B600AF19AE1B1796C5181C
:104978000E19C31A0C1B069A159750460A993C97AC
:10498800179F19933F931395149618943D973A954A
:104998003B963E94FFF7EAF84FF0000E094B0A9851
:1049A8000E9ACDF81CE02EA9CDF86CB0CDF870A009
:1049B8000AE000BF1D75A37B9A79825A83FB2021E8
:1049C800A1EBD96E48830108DDF8288058F80E500D
:1049D800AD001560C4680DF1B808A6004FEAE67985
:1049E800F0444FEAE57BC2F880618BEA050589EA65
:1049F80006060B95CDF81890D3F820410C96D8F8F8
:104A08000C5084FB056586694F6905EB8605EE1732
:104A1800C2F800537540D3F82C410D9584FB07C7A5
:104A2800446AD1F808C007EB8407FD17C2F8807400
:104A38006F402A97D3F8384184FB0C9CD8F824900F
:104A4800D3F8207187FB0989076B2EACE14409EB89
:104A5800870954F80E40C2F800964FEAE9780194A5
:104A6800D3F8447188EA0909A44687FB0CACCF6ADD
:104A7800BA46D3F82C7187FB0A4A0C9F069CD4448B
:104A8800C4EB070A0B9FCBEB070B4AEA0B0BDDF8CD
:104A980034A0C76BC6EB0A06DDF8A8A00CEB8704A8
:104AA8004FEAE47C4BEA060BC5EB0A058CEA0406E0
:104AB8004BEA050BC8EB0908C2F880474BEA080522
:104AC800079CCCEB060C0EF1040E45EA0C0C44EAEC
:104AD8000C04BEF10C0F03F10403A1F1040100F171
:104AE800040002F1800207947FF46EAF169D129BBA
:104AF8000F9E139CDDF870A0DDF86CB04FEAA30C94
:104B0800AF10179B149DCAF80070B210A810159E1C
:104B1800CAF804209D10189BCAF81000A110B41000
:104B28009E10199BCAF80C104FEAA30ECAF814403D
:104B3800CAF81850CAF81C60CAF808C0CAF820E0B9
:104B480051460E98109A209BFFF7EAF8109C079D93
:104B58000E9EDDF86880DDF8849001342843043621
:104B680048EA00084C4510940BF1480B0E960AF1E0
:104B7800240ACDF868807FF477ADDDF8B4A0DDF8BD
:104B880044C0CAEB040303EBC3030CEB830CCDF85E
:104B980044C0109C229DAC4280F211822B9EDDF80D
:104BA8006890069440AF06EB84060A9707960DF5C1
:104BB800A478002725461E9C1D9A11980A99AC4294
:104BC800C8BF0022FEF7D2FF119C0A9B079845F345
:104BD8000006089605F0010AA4F1040C00261968DD
:104BE800089D890001605A6885EA82025244D517F7
:104BF800CC1785EA020BC5EB0B0584EA010BC4EB65
:104C08000B040833114325434345C0F8802046EA86
:104C180001064CF8047F00F5807049EA0509DED1E9
:104C2800069D109CDDF81CA0002E18BF2C46109481
:104C3800119E229C013524360AF1040AA5420695E4
:104C48001196CDF81CA0B6D1CDF8689028461F283B
:104C58000EDC2B9D002105EB80020023D150803310
:104C6800B3F5106FFAD10130202802F10402F4D113
:104C7800269D299B239E289C259FDDF8B080DDF882
:104C880068902B441B01344403EBC404279B3C4429
:104C9800434403F5D85041F6083541F61831E66B20
:104CA800109FB9FA89F441F61032013C07605E5151
:104CB8005C50249C9C50002053B0BDE8F08F073313
:104CC80087FB0307DB17C3EBA70707EBC7035B00EB
:104CD80008337C1C16931094FFF73BB90DF58078C8
:104CE800199A0698DFF814A34146FEF73FFF169F6E
:104CF8000699CDF82CB007EBC70900220A9F079147
:104D08000AEB09191346164635A8DFF8F4E2856A56
:104D18009E44DEF8204084FB05C54168DDF81CA0F0
:104D28008C1005EB040E4AF804EBC5EB040ECDF825
:104D38001CA059F802508EFB054558F8021009EBE3
:104D480003040D44646CAD008EFB04C408EB030E31
:104D58004FEA421ADEF844E00A997444A4004FEA84
:104D6800E47C4FEAE57E41F80A508CEA040B8EEAAF
:104D78000505043BCCEB0B0CCEEB050E4CEA0E0CF8
:104D880013F1240FC7F88048A0F1040002F10402CF
:104D9800A7F1800746EA0C06B7D11DE4DDF81880B4
:104DA800069CD8F80C300593D8F808300493D8F846
:104DB80004300393D8F8003002931F9B276AE669F2
:104DC800DBF84020A569DBF844106469D8F81000C6
:104DD800DDF81890C3F1070308931F41C8F8207045
:104DE800DDF82080DDF820A0DBF83C70DBF83830F7
:104DF80041FA08F146FA08F642FA08F8C1EB080841
:104E080047FA0AFEC8EB0E0E43FA0AF3C9F81C600B
:104E1800CEEB0303DBF834600793DBF83070DDF882
:104E28001CC00D9146FA0AF6CCEB060645FA0AF5BF
:104E380047FA0AF7C9F8185044FA0AF4BF1BDBF816
:104E48002830CDF83C80DBF82C50C9F814400B977B
:104E58000B99DBF82470DBF82040059ADDF8188000
:104E680045FA0AF540FA0AF06D1A43FA0AFCC9F83D
:104E78001000C5EB0C0C47FA0AF9DBF81C00089B7C
:104E8800DBF81870CDF848C042FA0AF1CCEB0909F2
:104E980044FA0AF4C8F80C10C9EB040A0D99049CEA
:104EA80040FA03FCDBF81400C1EB0E0E44FA03F2DF
:104EB800DBF81010CDF838E0C8F80820CEEB06046F
:104EC800DDF82080DBF80C60159447FA03FE1841E2
:104ED800039BDBF808702D1B43FA08F2C5EB0903A6
:104EE800DDF81890129CC9F80420CAEB0C0CDDF808
:104EF8002090029ACCEB0E0ECEEB000041FA08F897
:104F0800C3EB0C0CC0EB080846FA09F6CCEB000022
:104F1800C8EB060647FA09F9371AC6EB09090997D3
:104F2800089EDBF80070DBF8041037413141139715
:104F38000F9F179518930F90099B1398CDF870C081
:104F4800C9EB01015546C3EB010CC1EB000A0699F8
:104F580042FA06F60E60FFF7BDB9239D1A99279A03
:104F68001094AD00294401F590512A4408682C9505
:104F78001A9D0828B8BF082000F1110605EB032385
:104F880087FB069702F5D858F6172A93086041F66A
:104F9800103341F60831C6EBA70621965158D8F8C8
:104FA8000060D35822961D911E9300242494FFF785
:104FB800F7B8002410941A942546FFF736BB20460C
:104FC80045E6046C002CC8D0249C1094671E07EB9F
:104FD800C7035B0008331693FEF7BBBF299A269CCC
:104FE800259D2244120102EBC3032B44239D196C17
:104FF800FFF7AAB84FF0FF305EE600BF488301080C
:10500800307301082DE9F04100EB410500EB411434
:10501800B5F88C649DF818C0BDF81CE084F8AC2283
:10502800254606F07F080027C6F3C01684F8AD822F
:1050380084F8AE6284F8AF3284F8B1C2A4F8B2E260
:1050480004F52A7485F8C47285F8C5720BB9012372
:105058002372FCF779FD0020BDE8F08170B54C01A2
:10506800BDF8145012B1061986F8AC22021902F5DF
:105078002A725689AE4200D05DB9044404F52A74F8
:10508800E2799A4201D003B1E371FCF75DFD00209B
:1050980070BD5581F1E700BFB0F98C34002B1DDAE3
:1050A800B0F98E34002B25DAB0F99034002B24DACD
:1050B800B0F99234002B23DAB0F99434002B22DAB9
:1050C800B0F99634002B21DAB0F99834002B20DAA5
:1050D800B0F99A34002B1FDAFF20704700231A46D4
:1050E80000EB42026FEA41416FEA5141A2F88C1489
:1050F8001846704701231A46F2E702231A46EFE7DB
:1051080003231A46ECE704231A46E9E705231A465F
:10511800E6E706231A46E3E707231A46E0E700BF57
:10512800072907D800EB4101B1F88C34C3F30E030B
:10513800A1F88C3400207047002380F8903480F860
:10514800913480F8923480F8933480F8943480F85D
:10515800953480F8963480F8973480F8983480F83D
:10516800993480F89A3480F89B341846704700BF09
:10517800C1F3080181807047038819420CBF0020E1
:1051880001207047F8B5164600234FF480724FF09F
:10519800800E0627CA820B834E8381F814E04F7570
:1051A800334600F588720C46054607F097F900B1BA
:1051B800F8BD95F8103184F8223095F8113184F84B
:1051C800233095F8132195F8123103EB0223A384B9
:1051D80095F8143184F8263095F8153184F827307D
:1051E80095F8163184F8283095F8173184F8293065
:1051F800082EDDD995F8192195F8183103EB02230B
:10520800638595F81B2195F81A3103EB0223A385D2
:1052180095F81D2195F81C3103EB0223E38595F8D9
:105228001E3184F8303095F81F3184F8313095F804
:10523800203184F8323095F8213184F83330F8BDC4
:105248002DE9F8434FF0060C1746002300F5887443
:105258004FF080084FF4007E0B8322464F8381F87D
:10526800148081F815C0A1F816E03B4606460D46A5
:1052780007F034F908B1BDE8F88396F8103185F8DD
:10528800343096F8113185F8353096F8132196F8B0
:10529800123103EB0223EB8696F8142185F83820A7
:1052A80096F8153185F8393096F8163185F83A3080
:1052B80096F8173185F83B3096F8183185F83C3068
:1052C800092FD8D9022AD6D8074605F13E0805F194
:1052D800500C7BB29342CEDA227814446278042AC6
:1052E800FAD103EBC303227808F803204344627819
:1052F8005A70A2789A70E278DA7021791971627915
:105308005A71A2799A71E279DA71227A1A720229AB
:1053180025D84FF000094E468E4220DA22781444F0
:105328006278052AF8D136B222780CF836200CEBD0
:10533800C60662787270A278B270E278F27061790B
:10534800227902EB0122B280A279B27109F1010936
:105358005FFA89F919794FFA89F68E42DEDB95F8FA
:1053680038200137B5E700BF2DE9F041BDF81860D6
:105378004E8342F440724FF080084FF0060C40F222
:10538800094E1D46CA8281F8148081F815C0A1F81B
:1053980018E0334600F58872074607F09FF818B9F9
:1053A80097F81131032B01D0BDE8F08197F810313F
:1053B800023BB342B8BF1E46B6B207F589774EB175
:1053C80029460246BB5C01F8013B023292B2964282
:1053D8000D46F7D800232B70BDE8F08130B40024C7
:1053E8000525CA824D7522460C750C834C832346CD
:1053F80030BC07F073B800BF30B400240925CA8256
:105408004D7522460C750C834C83234630BC07F03F
:1054180065B800BF70B4163300EB431300240A8349
:10542800022612064FF001050E754D75CC824C838D
:105438004FF000024CBF1C715C7170BC134607F042
:105448004DB800BF2DE9F04F0E4685B0002873D047
:10545800C368002B70D04369002B6DD0D0F818902A
:10546800B9F1000F68D0D0F8BC27022A09F5085511
:10547800984603F5D85A28D02A680AF1180A00274E
:1054880007F00104DAF80030009340462346494605
:1054980006F0CAFA2B682A4A2101214403EB81113C
:1054A800304609EB810107F013FD2A680137121B0A
:1054B80002F00702122F08F1800806F140062A6060
:1054C800DED1002005B0BDE8F08F574609F1800312
:1054D8002A6803930AF1180A1C374FF0000B0BF0E7
:1054E8000104DAF80030009340462346494606F0A6
:1054F8009BFA3B682A680399009308F510602346D5
:1055080006F092FA2B680E4A2101214403EB81111F
:10551800304609EB810107F0DDFE2A680BF1010B2B
:10552800121B02F00702BBF1120F08F1800806F106
:1055380080062A60D3D1C4E74FF0FF30C2E700BF2E
:105548001C7D0108002100F004B80D4B5B58435046
:1055580004310C480C4B42189A42FFF4F6AF0B4A40
:1055680000F003B8002342F8043B094B9A42FFF4C9
:10557800F9AF01F01BFD09F093FC00F029FD70471D
:1055880034890108000000201C0900201C090020A3
:1055980070E00020FFF7FEBF02F0E4BE012910DD35
:1055A800431E0139002002E00130884209D013F877
:1055B800012FFF2AF8D15A7802F0E002E02AF3D14D
:1055C80070474FF0FF30704770B418B1D0F8D0373B
:1055D800032B09D000230B604B608B60CB600B6101
:1055E8004B618B6170BC704790F8D427D0F8B857DE
:1055F8000B4ED0F8BC47D0F8C0070D6002EB42054F
:1056080006EB45068A61B6F904604C60102506FB76
:1056180004F2CD600A6188604B6170BC704700BFBE
:10562800147701082DE9F04F89B089469046059313
:105638000446002800F020820968FDF7EBFAB0F173
:10564800000AC0F20281D9F800105144C9F80010CC
:105658002046FDF7CFFB00280390C0F24281D9F81D
:105668000020D8F800300146114483460491D34401
:10567800CBEB0301049AC9F80020C8F80010D4F84D
:10568800B837002B45D1D4F8B037002B44D10123CB
:10569800C4F8B037D8F80000049B0128CBEB030B03
:1056A8001E461EDD3146451E002304E00133AB4291
:1056B80001F1010115D0F25CFF2A8C46F6D14A7837
:1056C80002F0E007E02FF1D19BF80050FF2D00F029
:1056D800C1806FF00202D21A1044012801F10306BA
:1056E800E0DC4FF0FF33C4F8B437D4F8C437D4F84B
:1056F800C817D4F8BC2701FB03F302FB03F2002A06
:1057080004DD05985200002109F052FC6FF00200F8
:105718009DE0D4F8B0374BB1D4F8B4572046FDF724
:105728006DFA2844C4F8CC07D8F80010129A002A59
:1057380000F0BD80D4F8D837C4F8CC17002B73D14B
:10574800002971DDC4F8DC17D8F80030D9F80070EA
:105758005B1A3944C9F80010C8F80030D4F8C437C7
:10576800D4F8DC27002083424FEAC20B07906EDD95
:1057780004F2DC7604968246D4F8BC37002B40F35A
:105788001F81DDF81090079ECDF80CA00025CA46B1
:10579800A046B14617E0DC4530DC039E0195009633
:1057A80002F03CFA002805F10105A4EBC004074407
:1057B800C0F23481079BD8F8BC27E41AAA42A34454
:1057C80040F3FB809946039E009639465B4607AA3C
:1057D80001954046FCF7D8FC079C5AF8043F06465A
:1057E800C9EBC60CA4443744CCEB0B0B002ECCEB16
:1057F800030C07AA404639466346CCDAD8F8C437C2
:10580800D8F8C817D8F8BC2701FB03F302FB03F24A
:10581800002A04DD05985200002109F0C9FB6FF049
:10582800070009B0BDE8F08FD4F8C437D4F8C8171A
:10583800D4F8BC2701FB03F302FB03F2002A04DDC2
:1058480005985200002109F0B3FB6FF0050009B07C
:10585800BDE8F08F9BF80150AA427FF43AAF9BF85D
:1058680002208D78554015F0FC0F7FF432AF930776
:10587800049E48BF01F1FF3CC6EB0C05002DC4F89F
:10588800B457FFF632AF039ED4F8C017D4F8C43724
:10589800D4F8C8270AEB0500304401FB00F1C90021
:1058A80002FB03F391FBF3F3C4F8B83736E7D4F8F7
:1058B800CC3799422BDAD4F8C437D4F8C817D4F8BF
:1058C800BC2701FB03F302FB03F2002A04DD059861
:1058D8001299520009F06CFB4FF0FF3009B0BDE897
:1058E800F08FD4F8C437D4F8C817D4F8BC2701FB14
:1058F80003F302FB03F2002A04DD0598520000219D
:1059080009F056FB6FF0060009B0BDE8F08FD4F837
:10591800DC17D4F8D827914223DB891A214404F1F3
:105928001C071C31384609F0E3FAD4F8D837D9F8FF
:105938000010D4F8CC27E0181C30FAF721FCD4F872
:10594800CC37D4F8D827D9F800101A44C4F8DC2783
:10595800D8F800201944D31AC9F80010C8F8003044
:10596800FCE660181A46D9F800101C30FAF708FC53
:10597800D4F8CC37D4F8DC27D9F800101A44C4F886
:10598800DC27D8F800201944D31AC9F80010C8F841
:105998000030D4F8C437D4F8C817D4F8BC2701FBB2
:1059A80003F302FB03F2002A04DD05981299520062
:1059B80009F0FEFA6FF0010049E7DDF80CA0444653
:1059C80020465146FDF79CFF002858DBD4F8BC3729
:1059D800002BC8BF002504DC34E0D4F8BC37AB4248
:1059E80030DD2A4620465146FEF760FA002805F1C8
:1059F8000105F2DAD4F8C437D4F8C817D4F8BC27AC
:105A080001FB03F302FB03F2002A04DD05985200B0
:105A1800002109F0CDFA6FF00A0018E7D8F8C4376A
:105A2800D8F8C817D8F8BC2701FB03F302FB03F228
:105A3800002A04DD05985200002109F0B9FA6FF038
:105A4800080004E7D4F8C827059E02FB0AF202FB07
:105A580003F106EB41012046FFF7F4FC0028D4F8D7
:105A6800C43720DB049E0AF1010A08365345049620
:105A78003FF782AE0020EAE66FF00400E7E6D4F8CC
:105A8800C437D4F8C817D4F8BC2701FB03F302FBCA
:105A980003F2002A04DD05985200002109F088FA73
:105AA8006FF00900D3E6D4F8C817D4F8BC2701FB77
:105AB80003F302FB03F2002A04DD059852000021DB
:105AC80009F076FA6FF00B00C1E600BFF0B5304878
